{
  "_format": "hh-sol-artifact-1",
  "contractName": "Lock",
  "sourceName": "contracts/Lock.sol",
  "abi": [
    {
      "inputs": [
        {
          "internalType": "address",
          "name": "_user",
          "type": "address"
        },
        {
          "internalType": "string",
          "name": "url",
          "type": "string"
        }
      ],
      "name": "add",
      "outputs": [],
      "stateMutability": "nonpayable",
      "type": "function"
    },
    {
      "inputs": [
        {
          "internalType": "address",
          "name": "user",
          "type": "address"
        }
      ],
      "name": "allow",
      "outputs": [],
      "stateMutability": "nonpayable",
      "type": "function"
    },
    {
      "inputs": [
        {
          "internalType": "address",
          "name": "user",
          "type": "address"
        }
      ],
      "name": "disallow",
      "outputs": [],
      "stateMutability": "nonpayable",
      "type": "function"
    },
    {
      "inputs": [
        {
          "internalType": "address",
          "name": "_user",
          "type": "address"
        }
      ],
      "name": "display",
      "outputs": [
        {
          "internalType": "string[]",
          "name": "",
          "type": "string[]"
        }
      ],
      "stateMutability": "view",
      "type": "function"
    },
    {
      "inputs": [],
      "name": "shareAccess",
      "outputs": [
        {
          "components": [
            {
              "internalType": "address",
              "name": "user",
              "type": "address"
            },
            {
              "internalType": "bool",
              "name": "access",
              "type": "bool"
            }
          ],
          "internalType": "struct Lock.Access[]",
          "name": "",
          "type": "tuple[]"
        }
      ],
      "stateMutability": "view",
      "type": "function"
    }
  ],
  "bytecode": "0x608060405234801561001057600080fd5b50610905806100206000396000f3fe608060405234801561001057600080fd5b50600436106100575760003560e01c806336d6da551461005c578063a9ed9cb814610071578063bc8bef8114610084578063eb39113f146100a2578063ff9913e8146100c2575b600080fd5b61006f61006a3660046105a1565b6100d5565b005b61006f61007f366004610624565b61010c565b61008c6101f3565b6040516100999190610646565b60405180910390f35b6100b56100b0366004610624565b610276565b60405161009991906106a0565b61006f6100d0366004610624565b6103f8565b6001600160a01b038316600090815260208181526040822080546001810182559083529120016101068284836107d1565b50505050565b3360009081526002602090815260408083206001600160a01b03851684529091528120805460ff191690555b336000908152600160205260409020548110156101ef5733600090815260016020526040902080546001600160a01b03841691908390811061017c5761017c610892565b6000918252602090912001546001600160a01b0316036101dd573360009081526001602052604081208054839081106101b7576101b7610892565b60009182526020909120018054911515600160a01b0260ff60a01b199092169190911790555b806101e7816108a8565b915050610138565b5050565b336000908152600160209081526040808320805482518185028101850190935280835260609492939192909184015b8282101561026d57600084815260209081902060408051808201909152908401546001600160a01b0381168252600160a01b900460ff16151581830152825260019092019101610222565b50505050905090565b60606001600160a01b0382163314806102b257506001600160a01b038216600090815260026020908152604080832033845290915290205460ff165b6103105760405162461bcd60e51b815260206004820152602560248201527f424861692054657265204b4f204b4953494e4542484920616363657373206e68604482015264692064696160d81b606482015260840160405180910390fd5b6001600160a01b03821660009081526020818152604080832080548251818502810185019093528083529193909284015b828210156103ed57838290600052602060002001805461036090610748565b80601f016020809104026020016040519081016040528092919081815260200182805461038c90610748565b80156103d95780601f106103ae576101008083540402835291602001916103d9565b820191906000526020600020905b8154815290600101906020018083116103bc57829003601f168201915b505050505081526020019060010190610341565b505050509050919050565b3360008181526002602090815260408083206001600160a01b038616808552908352818420805460ff1916600117905593835260038252808320938352929052205460ff16156104ff5760005b336000908152600160205260409020548110156101ef5733600090815260016020526040902080546001600160a01b03841691908390811061048957610489610892565b6000918252602090912001546001600160a01b0316036104ed573360009081526001602081905260409091208054839081106104c7576104c7610892565b60009182526020909120018054911515600160a01b0260ff60a01b199092169190911790555b806104f7816108a8565b915050610445565b336000818152600160208181526040808420815180830183526001600160a01b0397881680825281850186815283548088018555938852858820925192909301805493511515600160a01b026001600160a81b0319909416929099169190911791909117909655938352600381528383209483529390935220805460ff19169091179055565b80356001600160a01b038116811461059c57600080fd5b919050565b6000806000604084860312156105b657600080fd5b6105bf84610585565b9250602084013567ffffffffffffffff808211156105dc57600080fd5b818601915086601f8301126105f057600080fd5b8135818111156105ff57600080fd5b87602082850101111561061157600080fd5b6020830194508093505050509250925092565b60006020828403121561063657600080fd5b61063f82610585565b9392505050565b602080825282518282018190526000919060409081850190868401855b8281101561069357815180516001600160a01b031685528601511515868501529284019290850190600101610663565b5091979650505050505050565b6000602080830181845280855180835260408601915060408160051b87010192508387016000805b8381101561072457888603603f1901855282518051808852835b818110156106fd578281018a01518982018b015289016106e2565b508781018901849052601f01601f19169096018701955093860193918601916001016106c8565b509398975050505050505050565b634e487b7160e01b600052604160045260246000fd5b600181811c9082168061075c57607f821691505b60208210810361077c57634e487b7160e01b600052602260045260246000fd5b50919050565b601f8211156107cc57600081815260208120601f850160051c810160208610156107a95750805b601f850160051c820191505b818110156107c8578281556001016107b5565b5050505b505050565b67ffffffffffffffff8311156107e9576107e9610732565b6107fd836107f78354610748565b83610782565b6000601f84116001811461083157600085156108195750838201355b600019600387901b1c1916600186901b17835561088b565b600083815260209020601f19861690835b828110156108625786850135825560209485019460019092019101610842565b508682101561087f5760001960f88860031b161c19848701351681555b505060018560011b0183555b5050505050565b634e487b7160e01b600052603260045260246000fd5b6000600182016108c857634e487b7160e01b600052601160045260246000fd5b506001019056fea264697066735822122060da88d1eaa03639552ba204a07c36057c6d04ec02d52b6cebf5158cd011ba6564736f6c63430008130033",
  "linkReferences": {},
  "deployedLinkReferences": {}
}